{
  "transactions": [
    {
      "hash": "0xdabecf97079a255bce7547bfa5443209adc6eaae6f7ac66f6e935417152f4dfa",
      "transactionType": "CREATE",
      "contractName": "CrossChainCounter",
      "contractAddress": "0xcAed8046d2e2b9E395f9b6f2d0206C77E380eBD4",
      "function": null,
      "arguments": null,
      "transaction": {
        "type": "0x00",
        "from": "0x749f88e87eaeb030e478164cfd3681e27d0bcb42",
        "gas": "0x120270",
        "value": "0x0",
        "data": "0x608060405234801561001057600080fd5b5061001c600033610022565b506100ce565b6000828152602081815260408083206001600160a01b038516845290915281205460ff166100c4576000838152602081815260408083206001600160a01b03861684529091529020805460ff1916600117905561007c3390565b6001600160a01b0316826001600160a01b0316847f2f8788117e7eff1d82e926ec794901d17c78024a50270940304540a733656f0d60405160405180910390a45060016100c8565b5060005b92915050565b610ef8806100dd6000396000f3fe608060405234801561001057600080fd5b50600436106100df5760003560e01c806391d148541161008c578063cbd6acf511610066578063cbd6acf5146101eb578063cca5afd4146101fe578063d547741f14610211578063f185edf21461022457600080fd5b806391d1485414610181578063a217fddf146101b8578063ca777fbf146101c057600080fd5b806336568abe116100bd57806336568abe1461015257806361bc221a14610165578063720c281d1461016e57600080fd5b806301ffc9a7146100e4578063248a9ca31461010c5780632f2ff15d1461013d575b600080fd5b6100f76100f23660046109ca565b610237565b60405190151581526020015b60405180910390f35b61012f61011a3660046109fb565b60009081526020819052604090206001015490565b604051908152602001610103565b61015061014b366004610a29565b61026e565b005b610150610160366004610a29565b610299565b61012f60035481565b61015061017c3660046109fb565b6102d1565b6100f761018f366004610a29565b6000918252602082815260408084206001600160a01b0393909316845291905290205460ff1690565b61012f600081565b6001546101d3906001600160a01b031681565b6040516001600160a01b039091168152602001610103565b6101506101f9366004610a59565b610373565b61015061020c366004610a76565b6103fc565b61015061021f366004610a29565b610752565b610150610232366004610b19565b610777565b60006001600160e01b03198216637965db0b60e01b148061026857506301ffc9a760e01b6001600160e01b03198316145b92915050565b60008281526020819052604090206001015461028981610839565b6102938383610846565b50505050565b6001600160a01b03811633146102c25760405163334bd91960e11b815260040160405180910390fd5b6102cc82826108f0565b505050565b3360009081527fad3228b676f7d3cd4284a5443f17f1962b36e491b30a40b2405849e597ba5fb5602052604090205460ff1661032057604051636f4720fd60e11b815260040160405180910390fd5b60008181526002602052604090819020805460ff19169055517f1078e641ba4952ca3f912ad516e69b623ae23dfc9eb9040895213a5cb7a9824f906103689083815260200190565b60405180910390a150565b3360009081527fad3228b676f7d3cd4284a5443f17f1962b36e491b30a40b2405849e597ba5fb5602052604090205460ff166103c257604051636f4720fd60e11b815260040160405180910390fd5b600180547fffffffffffffffffffffffff0000000000000000000000000000000000000000166001600160a01b0392909216919091179055565b60015460408051630b69a22b60e21b815290516000926001600160a01b031691632da688ac916004808301926020929190829003018187875af1158015610447573d6000803e3d6000fd5b505050506040513d601f19601f8201168201806040525081019061046b9190610ba3565b90506001600160a01b0381163314610496576040516324439f6760e21b815260040160405180910390fd5b6000816001600160a01b031663508ab0a06040518163ffffffff1660e01b81526004016020604051808303816000875af11580156104d8573d6000803e3d6000fd5b505050506040513d601f19601f820116820180604052508101906104fc9190610bc0565b600081815260026020526040902060010180549192509061051c90610bd9565b90506000036105465760405163264e42cf60e01b8152600481018290526024015b60405180910390fd5b6000826001600160a01b0316632eb484916040518163ffffffff1660e01b81526004016000604051808303816000875af1158015610588573d6000803e3d6000fd5b505050506040513d6000823e601f3d908101601f191682016040526105b09190810190610c37565b90508080519060200120600260008481526020019081526020016000206001016040516105dd9190610cae565b604051809103902014610607578082604051630792ddd560e11b815260040161053d929190610d50565b8460ff166003600082825461061c9190610d72565b909155505060015460408051630b69a22b60e21b815290516000926001600160a01b031691632da688ac916004808301926020929190829003018187875af115801561066c573d6000803e3d6000fd5b505050506040513d601f19601f820116820180604052508101906106909190610ba3565b6001600160a01b031663508ab0a06040518163ffffffff1660e01b81526004016020604051808303816000875af11580156106cf573d6000803e3d6000fd5b505050506040513d601f19601f820116820180604052508101906106f39190610bc0565b6003546040805191825260ff8916602083015281018290526001600160a01b03871660608201529091507f2d610d0c1e84a218c3912e1ea49b0f18254d1e6a5a26e702d5f1ba1ddeff791f9060800160405180910390a1505050505050565b60008281526020819052604090206001015461076d81610839565b61029383836108f0565b3360009081527fad3228b676f7d3cd4284a5443f17f1962b36e491b30a40b2405849e597ba5fb5602052604090205460ff166107c657604051636f4720fd60e11b815260040160405180910390fd5b60008281526002602052604090206001016107e18282610de1565b5060008281526002602052604090819020805460ff19166001179055517fd25177e555af58dcaf6d1ee9e50fb88465f9708820a35552a0eb3923e65040bb9061082d9084908490610ea1565b60405180910390a15050565b6108438133610973565b50565b6000828152602081815260408083206001600160a01b038516845290915281205460ff166108e8576000838152602081815260408083206001600160a01b03861684529091529020805460ff191660011790556108a03390565b6001600160a01b0316826001600160a01b0316847f2f8788117e7eff1d82e926ec794901d17c78024a50270940304540a733656f0d60405160405180910390a4506001610268565b506000610268565b6000828152602081815260408083206001600160a01b038516845290915281205460ff16156108e8576000838152602081815260408083206001600160a01b0386168085529252808320805460ff1916905551339286917ff6391f5c32d9c69d2a47ea670b442974b53935d1edc7fd64eb21e047a839171b9190a4506001610268565b6000828152602081815260408083206001600160a01b038516845290915290205460ff166109c65760405163e2517d3f60e01b81526001600160a01b03821660048201526024810183905260440161053d565b5050565b6000602082840312156109dc57600080fd5b81356001600160e01b0319811681146109f457600080fd5b9392505050565b600060208284031215610a0d57600080fd5b5035919050565b6001600160a01b038116811461084357600080fd5b60008060408385031215610a3c57600080fd5b823591506020830135610a4e81610a14565b809150509250929050565b600060208284031215610a6b57600080fd5b81356109f481610a14565b60008060408385031215610a8957600080fd5b823560ff81168114610a9a57600080fd5b91506020830135610a4e81610a14565b634e487b7160e01b600052604160045260246000fd5b604051601f8201601f1916810167ffffffffffffffff81118282101715610ae957610ae9610aaa565b604052919050565b600067ffffffffffffffff821115610b0b57610b0b610aaa565b50601f01601f191660200190565b60008060408385031215610b2c57600080fd5b82359150602083013567ffffffffffffffff811115610b4a57600080fd5b8301601f81018513610b5b57600080fd5b8035610b6e610b6982610af1565b610ac0565b818152866020838501011115610b8357600080fd5b816020840160208301376000602083830101528093505050509250929050565b600060208284031215610bb557600080fd5b81516109f481610a14565b600060208284031215610bd257600080fd5b5051919050565b600181811c90821680610bed57607f821691505b602082108103610c0d57634e487b7160e01b600052602260045260246000fd5b50919050565b60005b83811015610c2e578181015183820152602001610c16565b50506000910152565b600060208284031215610c4957600080fd5b815167ffffffffffffffff811115610c6057600080fd5b8201601f81018413610c7157600080fd5b8051610c7f610b6982610af1565b818152856020838501011115610c9457600080fd5b610ca5826020830160208601610c13565b95945050505050565b6000808354610cbc81610bd9565b60018281168015610cd45760018114610ce957610d18565b60ff1984168752821515830287019450610d18565b8760005260208060002060005b85811015610d0f5781548a820152908401908201610cf6565b50505082870194505b50929695505050505050565b60008151808452610d3c816020860160208601610c13565b601f01601f19169290920160200192915050565b604081526000610d636040830185610d24565b90508260208301529392505050565b8082018082111561026857634e487b7160e01b600052601160045260246000fd5b601f8211156102cc57600081815260208120601f850160051c81016020861015610dba5750805b601f850160051c820191505b81811015610dd957828155600101610dc6565b505050505050565b815167ffffffffffffffff811115610dfb57610dfb610aaa565b610e0f81610e098454610bd9565b84610d93565b602080601f831160018114610e445760008415610e2c5750858301515b600019600386901b1c1916600185901b178555610dd9565b600085815260208120601f198616915b82811015610e7357888601518255948401946001909101908401610e54565b5085821015610e915787850151600019600388901b60f8161c191681555b5050505050600190811b01905550565b828152604060208201526000610eba6040830184610d24565b94935050505056fea26469706673582212207f901521d2218f8ebbcbe4477e01932ed2f036059df7f250de498c9ba74303b464736f6c63430008150033",
        "nonce": "0x0"
      },
      "additionalContracts": [],
      "isFixedGasLimit": false
    },
    {
      "hash": "0x098d0d9618bbd94b0fc7c062e203376335b927b18504b6fd91367fb9986c9de2",
      "transactionType": "CALL",
      "contractName": "CrossChainCounter",
      "contractAddress": "0xcAed8046d2e2b9E395f9b6f2d0206C77E380eBD4",
      "function": "setDeBridgeGate(address)",
      "arguments": [
        "0x43dE2d77BF8027e25dBD179B491e8d64f38398aA"
      ],
      "transaction": {
        "type": "0x00",
        "from": "0x749f88e87eaeb030e478164cfd3681e27d0bcb42",
        "to": "0xcaed8046d2e2b9e395f9b6f2d0206c77e380ebd4",
        "gas": "0xf8b3",
        "value": "0x0",
        "data": "0xcbd6acf500000000000000000000000043de2d77bf8027e25dbd179b491e8d64f38398aa",
        "nonce": "0x1"
      },
      "additionalContracts": [],
      "isFixedGasLimit": false
    },
    {
      "hash": "0xba3ecbb97b063d4baa51caf02ab8215969ceba060285bed7bc6c2172a92283bc",
      "transactionType": "CALL",
      "contractName": "CrossChainCounter",
      "contractAddress": "0xcAed8046d2e2b9E395f9b6f2d0206C77E380eBD4",
      "function": "addChainSupport(uint256,bytes)",
      "arguments": [
        "43114",
        "0xcaed8046d2e2b9e395f9b6f2d0206c77e380ebd4"
      ],
      "transaction": {
        "type": "0x00",
        "from": "0x749f88e87eaeb030e478164cfd3681e27d0bcb42",
        "to": "0xcaed8046d2e2b9e395f9b6f2d0206c77e380ebd4",
        "gas": "0x182b9",
        "value": "0x0",
        "data": "0xf185edf2000000000000000000000000000000000000000000000000000000000000a86a00000000000000000000000000000000000000000000000000000000000000400000000000000000000000000000000000000000000000000000000000000014caed8046d2e2b9e395f9b6f2d0206c77e380ebd4000000000000000000000000",
        "nonce": "0x2"
      },
      "additionalContracts": [],
      "isFixedGasLimit": false
    }
  ],
  "receipts": [
    {
      "transactionHash": "0xdabecf97079a255bce7547bfa5443209adc6eaae6f7ac66f6e935417152f4dfa",
      "transactionIndex": "0x4a",
      "blockHash": "0x6ae07fbe7c52c036dab51893b0ee7c89b32216476aff5c53b62ab9c0c13408cb",
      "blockNumber": "0x21d1858",
      "from": "0x749f88e87EaEb030E478164cFd3681E27d0bcB42",
      "to": null,
      "cumulativeGasUsed": "0x6b485b",
      "gasUsed": "0xdda7e",
      "contractAddress": "0xcAed8046d2e2b9E395f9b6f2d0206C77E380eBD4",
      "logs": [
        {
          "address": "0xcAed8046d2e2b9E395f9b6f2d0206C77E380eBD4",
          "topics": [
            "0x2f8788117e7eff1d82e926ec794901d17c78024a50270940304540a733656f0d",
            "0x0000000000000000000000000000000000000000000000000000000000000000",
            "0x000000000000000000000000749f88e87eaeb030e478164cfd3681e27d0bcb42",
            "0x000000000000000000000000749f88e87eaeb030e478164cfd3681e27d0bcb42"
          ],
          "data": "0x",
          "blockHash": "0x6ae07fbe7c52c036dab51893b0ee7c89b32216476aff5c53b62ab9c0c13408cb",
          "blockNumber": "0x21d1858",
          "transactionHash": "0xdabecf97079a255bce7547bfa5443209adc6eaae6f7ac66f6e935417152f4dfa",
          "transactionIndex": "0x4a",
          "logIndex": "0xc1",
          "removed": false
        }
      ],
      "status": "0x1",
      "logsBloom": "0x00000004000000000000000200000000000000000000000000000000000000000400000000000000000000000000000000000000000000000000000000000000000000000000000000000000000000000000000000000000000000000000000000000000020000000000000000000800000000000000001000000000000000000000000000000000040000000000000000000000000000000000000000000000000000000000040000000000000000000000000000000000001000000000000000000000000000000000000000000000000000000000000100000000000020000000000000000000000000000000000400000000000000000000000000000000",
      "type": "0x0",
      "effectiveGasPrice": "0xb2d05e00"
    },
    {
      "transactionHash": "0x098d0d9618bbd94b0fc7c062e203376335b927b18504b6fd91367fb9986c9de2",
      "transactionIndex": "0x4b",
      "blockHash": "0x6ae07fbe7c52c036dab51893b0ee7c89b32216476aff5c53b62ab9c0c13408cb",
      "blockNumber": "0x21d1858",
      "from": "0x749f88e87EaEb030E478164cFd3681E27d0bcB42",
      "to": "0xcAed8046d2e2b9E395f9b6f2d0206C77E380eBD4",
      "cumulativeGasUsed": "0x6bfc6a",
      "gasUsed": "0xb40f",
      "contractAddress": null,
      "logs": [],
      "status": "0x1",
      "logsBloom": "0x00000000000000000000000000000000000000000000000000000000000000000000000000000000000000000000000000000000000000000000000000000000000000000000000000000000000000000000000000000000000000000000000000000000000000000000000000000000000000000000000000000000000000000000000000000000000000000000000000000000000000000000000000000000000000000000000000000000000000000000000000000000000000000000000000000000000000000000000000000000000000000000000000000000000000000000000000000000000000000000000000000000000000000000000000000000",
      "type": "0x0",
      "effectiveGasPrice": "0xb2d05e00"
    },
    {
      "transactionHash": "0xba3ecbb97b063d4baa51caf02ab8215969ceba060285bed7bc6c2172a92283bc",
      "transactionIndex": "0x4c",
      "blockHash": "0x6ae07fbe7c52c036dab51893b0ee7c89b32216476aff5c53b62ab9c0c13408cb",
      "blockNumber": "0x21d1858",
      "from": "0x749f88e87EaEb030E478164cFd3681E27d0bcB42",
      "to": "0xcAed8046d2e2b9E395f9b6f2d0206C77E380eBD4",
      "cumulativeGasUsed": "0x6d1466",
      "gasUsed": "0x117fc",
      "contractAddress": null,
      "logs": [
        {
          "address": "0xcAed8046d2e2b9E395f9b6f2d0206C77E380eBD4",
          "topics": [
            "0xd25177e555af58dcaf6d1ee9e50fb88465f9708820a35552a0eb3923e65040bb"
          ],
          "data": "0x000000000000000000000000000000000000000000000000000000000000a86a00000000000000000000000000000000000000000000000000000000000000400000000000000000000000000000000000000000000000000000000000000014caed8046d2e2b9e395f9b6f2d0206c77e380ebd4000000000000000000000000",
          "blockHash": "0x6ae07fbe7c52c036dab51893b0ee7c89b32216476aff5c53b62ab9c0c13408cb",
          "blockNumber": "0x21d1858",
          "transactionHash": "0xba3ecbb97b063d4baa51caf02ab8215969ceba060285bed7bc6c2172a92283bc",
          "transactionIndex": "0x4c",
          "logIndex": "0xc2",
          "removed": false
        }
      ],
      "status": "0x1",
      "logsBloom": "0x00000000000000000000000000000000000000000000000000000000000000000400000000000000000000000000000000000000000000000000000000000000000000000000000000000000000000000000000000000000000000000000000000000000000000000000000000000000000000000000001000000000000000000000000000000000000000000000000000000000000000000000000000000000000000000000000000000040000000000000000000000000000000000000000000000000000000000000000000000000000000000000000000000000000000000000000000000000000000002000008400000000000000000000000000000000",
      "type": "0x0",
      "effectiveGasPrice": "0xb2d05e00"
    }
  ],
  "libraries": [],
  "pending": [],
  "returns": {},
  "timestamp": 1705908733,
  "chain": 56,
  "multi": false,
  "commit": null
}