{
  "transactions": [
    {
      "hash": "0xf2ac3806f2b66ba8781732be92fd2bcad564adc6d4fdf83c4a2612e3180203d4",
      "transactionType": "CALL",
      "contractName": "CrossChainIncrementor",
      "contractAddress": "0xcAed8046d2e2b9E395f9b6f2d0206C77E380eBD4",
      "function": "incrementWithIncludedGas(uint8,uint256)",
      "arguments": [
        "3",
        "400000000000000000"
      ],
      "transaction": {
        "type": "0x02",
        "from": "0x749f88e87eaeb030e478164cfd3681e27d0bcb42",
        "to": "0xcaed8046d2e2b9e395f9b6f2d0206c77e380ebd4",
        "gas": "0x2fb86",
        "value": "0xb1a2bc2ec500000",
        "data": "0xa78730a50000000000000000000000000000000000000000000000000000000000000003000000000000000000000000000000000000000000000000058d15e176280000",
        "nonce": "0x4",
        "accessList": []
      },
      "additionalContracts": [],
      "isFixedGasLimit": false
    }
  ],
  "receipts": [],
  "libraries": [],
  "pending": [
    "0xf2ac3806f2b66ba8781732be92fd2bcad564adc6d4fdf83c4a2612e3180203d4"
  ],
  "returns": {},
  "timestamp": 1705909635,
  "chain": 43114,
  "multi": false,
  "commit": null
}