{
  "transactions": [
    {
      "hash": "0x0d7c7d90303e1d9c685b12486e0b8083c2c4ea433f35a0552838bc372140c974",
      "transactionType": "CALL",
      "contractName": "CrossChainIncrementor",
      "contractAddress": "0xcAed8046d2e2b9E395f9b6f2d0206C77E380eBD4",
      "function": "increment(uint8)",
      "arguments": [
        "3"
      ],
      "transaction": {
        "type": "0x02",
        "from": "0x749f88e87eaeb030e478164cfd3681e27d0bcb42",
        "to": "0xcaed8046d2e2b9e395f9b6f2d0206c77e380ebd4",
        "gas": "0x2d004",
        "value": "0x16345785d8a0000",
        "data": "0xd6b463300000000000000000000000000000000000000000000000000000000000000003",
        "nonce": "0x5",
        "accessList": []
      },
      "additionalContracts": [],
      "isFixedGasLimit": false
    }
  ],
  "receipts": [
    {
      "transactionHash": "0x0d7c7d90303e1d9c685b12486e0b8083c2c4ea433f35a0552838bc372140c974",
      "transactionIndex": "0x4",
      "blockHash": "0x1b578a85f4d033dd963010a2c5883edd78fae2439dfbfe1bb6461c7243e70d28",
      "blockNumber": "0x26ccc95",
      "from": "0x749f88e87EaEb030E478164cFd3681E27d0bcB42",
      "to": "0xcAed8046d2e2b9E395f9b6f2d0206C77E380eBD4",
      "cumulativeGasUsed": "0x8c71b",
      "gasUsed": "0x21438",
      "contractAddress": null,
      "logs": [
        {
          "address": "0xB31f66AA3C1e785363F0875A1B74E27b85FD66c7",
          "topics": [
            "0xe1fffcc4923d04b559f4d29a8bfc6cda04eb5b0d3c460751c2402c5c5cc9109c",
            "0x00000000000000000000000043de2d77bf8027e25dbd179b491e8d64f38398aa"
          ],
          "data": "0x000000000000000000000000000000000000000000000000016345785d8a0000",
          "blockHash": "0x1b578a85f4d033dd963010a2c5883edd78fae2439dfbfe1bb6461c7243e70d28",
          "blockNumber": "0x26ccc95",
          "transactionHash": "0x0d7c7d90303e1d9c685b12486e0b8083c2c4ea433f35a0552838bc372140c974",
          "transactionIndex": "0x4",
          "logIndex": "0x6",
          "removed": false
        },
        {
          "address": "0x43dE2d77BF8027e25dBD179B491e8d64f38398aA",
          "topics": [
            "0xe315721819a1f353fe56de404206bdd896ab5edc7822f1804a8c4c2c4788174c",
            "0x0d7439042514ae2e124f31c7905e3021f2bae72180b0bee68cb40bdfcaaf5620",
            "0x0000000000000000000000000000000000000000000000000000000000000038"
          ],
          "data": "0xbbf5686cf220465c4e83c8c973afdd9d5b9c7760544692d00a7973e97ead788000000000000000000000000000000000000000000000000000b17542a687e000000000000000000000000000000000000000000000000000000000000000018000000000000000000000000000000000000000000000000000000000000067680000000000000000000000000000000000000000000000000000000000000000000000000000000000000000000000000000000000000000016345785d8a000000000000000000000000000000000000000000000000000000b1a2bc2ec5000000000000000000000000000000000000000000000000000000002d79883d20000000000000000000000000000000000000000000000000000000000000000001000000000000000000000000000000000000000000000000000000000000000100000000000000000000000000000000000000000000000000000000000001c0000000000000000000000000caed8046d2e2b9e395f9b6f2d0206c77e380ebd40000000000000000000000000000000000000000000000000000000000000014caed8046d2e2b9e395f9b6f2d0206c77e380ebd40000000000000000000000000000000000000000000000000000000000000000000000000000000000000160000000000000000000000000000000000000000000000000000000000000002000000000000000000000000000000000000000000000000000000000000000000000000000000000000000000000000000000000000000000000000000000006000000000000000000000000000000000000000000000000000000000000008000000000000000000000000000000000000000000000000000000000000000c00000000000000000000000000000000000000000000000000000000000000014749f88e87eaeb030e478164cfd3681e27d0bcb420000000000000000000000000000000000000000000000000000000000000000000000000000000000000044cca5afd40000000000000000000000000000000000000000000000000000000000000003000000000000000000000000749f88e87eaeb030e478164cfd3681e27d0bcb4200000000000000000000000000000000000000000000000000000000",
          "blockHash": "0x1b578a85f4d033dd963010a2c5883edd78fae2439dfbfe1bb6461c7243e70d28",
          "blockNumber": "0x26ccc95",
          "transactionHash": "0x0d7c7d90303e1d9c685b12486e0b8083c2c4ea433f35a0552838bc372140c974",
          "transactionIndex": "0x4",
          "logIndex": "0x7",
          "removed": false
        },
        {
          "address": "0x43dE2d77BF8027e25dBD179B491e8d64f38398aA",
          "topics": [
            "0x6bc83b8dd1a15f3a247f8f99d37e3bb8ae7074ea13ee1f509e045723fafe0b55"
          ],
          "data": "0xbbf5686cf220465c4e83c8c973afdd9d5b9c7760544692d00a7973e97ead7880000000000000000000000000000000000000000000000000000000000000676800000000000000000000000000000000000000000000000fe6a41048769b320e00000000000000000000000000000000000000000004aacae05779f37299cac6",
          "blockHash": "0x1b578a85f4d033dd963010a2c5883edd78fae2439dfbfe1bb6461c7243e70d28",
          "blockNumber": "0x26ccc95",
          "transactionHash": "0x0d7c7d90303e1d9c685b12486e0b8083c2c4ea433f35a0552838bc372140c974",
          "transactionIndex": "0x4",
          "logIndex": "0x8",
          "removed": false
        }
      ],
      "status": "0x1",
      "logsBloom": "0x00000000000000000000000000000004000000000000000020000800000000000000000008000000004020000004000000000000000000000000002000000000000080000800000000000000000000000000100000000000000000008000000000000000000000020000000000000000000000002000000000000000010000000000000000000000000000000000400000000001000000000000000000000000000000000000000800000000000000000000000000000000000000000000000000000000000000000000000000000000000000000000000000000000000000100000000000000000000000000002000000001000000000400200000002000000",
      "type": "0x2",
      "effectiveGasPrice": "0x684ee1800"
    }
  ],
  "libraries": [],
  "pending": [],
  "returns": {},
  "timestamp": 1705912223,
  "chain": 43114,
  "multi": false,
  "commit": null
}