{
  "transactions": [
    {
      "hash": "0x8e61a22358749a7551c314893541e516fc46d3cc9a55da1ccb614d129d2444f3",
      "transactionType": "CALL",
      "contractName": "CrossChainIncrementor",
      "contractAddress": "0xcAed8046d2e2b9E395f9b6f2d0206C77E380eBD4",
      "function": "addCounter(uint256,address)",
      "arguments": [
        "56",
        "0xcAed8046d2e2b9E395f9b6f2d0206C77E380eBD4"
      ],
      "transaction": {
        "type": "0x02",
        "from": "0x749f88e87eaeb030e478164cfd3681e27d0bcb42",
        "to": "0xcaed8046d2e2b9e395f9b6f2d0206c77e380ebd4",
        "gas": "0x1712c",
        "value": "0x0",
        "data": "0x9c82618a0000000000000000000000000000000000000000000000000000000000000038000000000000000000000000caed8046d2e2b9e395f9b6f2d0206c77e380ebd4",
        "nonce": "0x3",
        "accessList": []
      },
      "additionalContracts": [],
      "isFixedGasLimit": false
    }
  ],
  "receipts": [
    {
      "transactionHash": "0x8e61a22358749a7551c314893541e516fc46d3cc9a55da1ccb614d129d2444f3",
      "transactionIndex": "0x5",
      "blockHash": "0x379f2ea33a22c48d4424ae779924b75816ad568c9d75b205332014258a11fea9",
      "blockNumber": "0x26cc6d6",
      "from": "0x749f88e87EaEb030E478164cFd3681E27d0bcB42",
      "to": "0xcAed8046d2e2b9E395f9b6f2d0206C77E380eBD4",
      "cumulativeGasUsed": "0x10ff34",
      "gasUsed": "0x10b47",
      "contractAddress": null,
      "logs": [],
      "status": "0x1",
      "logsBloom": "0x00000000000000000000000000000000000000000000000000000000000000000000000000000000000000000000000000000000000000000000000000000000000000000000000000000000000000000000000000000000000000000000000000000000000000000000000000000000000000000000000000000000000000000000000000000000000000000000000000000000000000000000000000000000000000000000000000000000000000000000000000000000000000000000000000000000000000000000000000000000000000000000000000000000000000000000000000000000000000000000000000000000000000000000000000000000",
      "type": "0x2",
      "effectiveGasPrice": "0x684ee1800"
    }
  ],
  "libraries": [],
  "pending": [],
  "returns": {},
  "timestamp": 1705909227,
  "chain": 43114,
  "multi": false,
  "commit": null
}