{
  "transactions": [
    {
      "hash": "0xf2ac3806f2b66ba8781732be92fd2bcad564adc6d4fdf83c4a2612e3180203d4",
      "transactionType": "CALL",
      "contractName": "CrossChainIncrementor",
      "contractAddress": "0xcAed8046d2e2b9E395f9b6f2d0206C77E380eBD4",
      "function": "incrementWithIncludedGas(uint8,uint256)",
      "arguments": [
        "3",
        "400000000000000000"
      ],
      "transaction": {
        "type": "0x02",
        "from": "0x749f88e87eaeb030e478164cfd3681e27d0bcb42",
        "to": "0xcaed8046d2e2b9e395f9b6f2d0206c77e380ebd4",
        "gas": "0x2fb86",
        "value": "0xb1a2bc2ec500000",
        "data": "0xa78730a50000000000000000000000000000000000000000000000000000000000000003000000000000000000000000000000000000000000000000058d15e176280000",
        "nonce": "0x4",
        "accessList": []
      },
      "additionalContracts": [],
      "isFixedGasLimit": false
    }
  ],
  "receipts": [
    {
      "transactionHash": "0xf2ac3806f2b66ba8781732be92fd2bcad564adc6d4fdf83c4a2612e3180203d4",
      "transactionIndex": "0x4",
      "blockHash": "0x746cf56e2c8f54f99cdfaacb1afd733a965e7e1e06cb15d519c50efd7bd09f6e",
      "blockNumber": "0x26cc7a0",
      "from": "0x749f88e87EaEb030E478164cFd3681E27d0bcB42",
      "to": "0xcAed8046d2e2b9E395f9b6f2d0206C77E380eBD4",
      "cumulativeGasUsed": "0x5f496",
      "gasUsed": "0x21502",
      "contractAddress": null,
      "logs": [
        {
          "address": "0xB31f66AA3C1e785363F0875A1B74E27b85FD66c7",
          "topics": [
            "0xe1fffcc4923d04b559f4d29a8bfc6cda04eb5b0d3c460751c2402c5c5cc9109c",
            "0x00000000000000000000000043de2d77bf8027e25dbd179b491e8d64f38398aa"
          ],
          "data": "0x0000000000000000000000000000000000000000000000000b1a2bc2ec500000",
          "blockHash": "0x746cf56e2c8f54f99cdfaacb1afd733a965e7e1e06cb15d519c50efd7bd09f6e",
          "blockNumber": "0x26cc7a0",
          "transactionHash": "0xf2ac3806f2b66ba8781732be92fd2bcad564adc6d4fdf83c4a2612e3180203d4",
          "transactionIndex": "0x4",
          "logIndex": "0x5",
          "removed": false
        },
        {
          "address": "0x43dE2d77BF8027e25dBD179B491e8d64f38398aA",
          "topics": [
            "0xe315721819a1f353fe56de404206bdd896ab5edc7822f1804a8c4c2c4788174c",
            "0x0d7439042514ae2e124f31c7905e3021f2bae72180b0bee68cb40bdfcaaf5620",
            "0x0000000000000000000000000000000000000000000000000000000000000038"
          ],
          "data": "0x12c6e9e32ee62d2f10a93875c5364dfcb278be9811cc4b7c670a74f26171edbc00000000000000000000000000000000000000000000000004da34d28db720000000000000000000000000000000000000000000000000000000000000000180000000000000000000000000000000000000000000000000000000000000676700000000000000000000000000000000000000000000000000000000000000000000000000000000000000000000000000000000000000000b1a2bc2ec50000000000000000000000000000000000000000000000000000000b1a2bc2ec500000000000000000000000000000000000000000000000000000002aa1efb94e0000000000000000000000000000000000000000000000000000000000000000001000000000000000000000000000000000000000000000000000000000000000100000000000000000000000000000000000000000000000000000000000001c0000000000000000000000000caed8046d2e2b9e395f9b6f2d0206c77e380ebd40000000000000000000000000000000000000000000000000000000000000014caed8046d2e2b9e395f9b6f2d0206c77e380ebd400000000000000000000000000000000000000000000000000000000000000000000000000000000000001600000000000000000000000000000000000000000000000000000000000000020000000000000000000000000000000000000000000000000058baa15343f00000000000000000000000000000000000000000000000000000000000000000006000000000000000000000000000000000000000000000000000000000000008000000000000000000000000000000000000000000000000000000000000000c00000000000000000000000000000000000000000000000000000000000000014749f88e87eaeb030e478164cfd3681e27d0bcb420000000000000000000000000000000000000000000000000000000000000000000000000000000000000044cca5afd40000000000000000000000000000000000000000000000000000000000000003000000000000000000000000749f88e87eaeb030e478164cfd3681e27d0bcb4200000000000000000000000000000000000000000000000000000000",
          "blockHash": "0x746cf56e2c8f54f99cdfaacb1afd733a965e7e1e06cb15d519c50efd7bd09f6e",
          "blockNumber": "0x26cc7a0",
          "transactionHash": "0xf2ac3806f2b66ba8781732be92fd2bcad564adc6d4fdf83c4a2612e3180203d4",
          "transactionIndex": "0x4",
          "logIndex": "0x6",
          "removed": false
        },
        {
          "address": "0x43dE2d77BF8027e25dBD179B491e8d64f38398aA",
          "topics": [
            "0x6bc83b8dd1a15f3a247f8f99d37e3bb8ae7074ea13ee1f509e045723fafe0b55"
          ],
          "data": "0x12c6e9e32ee62d2f10a93875c5364dfcb278be9811cc4b7c670a74f26171edbc000000000000000000000000000000000000000000000000000000000000676700000000000000000000000000000000000000000000000fe5f29b05d013520e00000000000000000000000000000000000000000004a86fb3a7899b33661bf7",
          "blockHash": "0x746cf56e2c8f54f99cdfaacb1afd733a965e7e1e06cb15d519c50efd7bd09f6e",
          "blockNumber": "0x26cc7a0",
          "transactionHash": "0xf2ac3806f2b66ba8781732be92fd2bcad564adc6d4fdf83c4a2612e3180203d4",
          "transactionIndex": "0x4",
          "logIndex": "0x7",
          "removed": false
        }
      ],
      "status": "0x1",
      "logsBloom": "0x00000000000000000000000000000004000000000000000020000800000000000000000008000000004020000004000000000000000000000000002000000000000080000800000000000000000000000000100000000000000000008000000000000000000000020000000000000000000000002000000000000000010000000000000000000000000000000000400000000001000000000000000000000000000000000000000800000000000000000000000000000000000000000000000000000000000000000000000000000000000000000000000000000000000000100000000000000000000000000002000000001000000000400200000002000000",
      "type": "0x2",
      "effectiveGasPrice": "0x684ee1800"
    }
  ],
  "libraries": [],
  "pending": [],
  "returns": {},
  "timestamp": 1705909642,
  "chain": 43114,
  "multi": false,
  "commit": null
}