{
  "transactions": [
    {
      "hash": "0x66237e20e305096253c6547cffbe9d516d4558467fa4b4fe2dd0b82e8275fd80",
      "transactionType": "CALL",
      "contractName": "TransparentUpgradeableProxy",
      "contractAddress": "0x43dE2d77BF8027e25dBD179B491e8d64f38398aA",
      "function": "globalFixedNativeFee()",
      "arguments": [],
      "transaction": {
        "type": "0x02",
        "from": "0x749f88e87eaeb030e478164cfd3681e27d0bcb42",
        "to": "0x43de2d77bf8027e25dbd179b491e8d64f38398aa",
        "gas": "0xafb2",
        "value": "0x0",
        "data": "0x35087f0a",
        "nonce": "0x6",
        "accessList": []
      },
      "additionalContracts": [],
      "isFixedGasLimit": false
    },
    {
      "hash": "0xb5c92c5a91e52da93a50bab13edc4f2a7e3870cc6e5be0ee58e712de6c858805",
      "transactionType": "CALL",
      "contractName": "CrossChainIncrementor",
      "contractAddress": "0xcAed8046d2e2b9E395f9b6f2d0206C77E380eBD4",
      "function": "incrementWithIncludedGas(uint8,uint256)",
      "arguments": [
        "3",
        "400000000000000000"
      ],
      "transaction": {
        "type": "0x02",
        "from": "0x749f88e87eaeb030e478164cfd3681e27d0bcb42",
        "to": "0xcaed8046d2e2b9e395f9b6f2d0206c77e380ebd4",
        "gas": "0x2fb86",
        "value": "0x63eb89da4ed0000",
        "data": "0xa78730a50000000000000000000000000000000000000000000000000000000000000003000000000000000000000000000000000000000000000000058d15e176280000",
        "nonce": "0x7",
        "accessList": []
      },
      "additionalContracts": [],
      "isFixedGasLimit": false
    }
  ],
  "receipts": [
    {
      "transactionHash": "0x66237e20e305096253c6547cffbe9d516d4558467fa4b4fe2dd0b82e8275fd80",
      "transactionIndex": "0x7",
      "blockHash": "0x7c336384e1f61d3453426e07bc535931efa44dd6474a81f944f0dbee01ea6811",
      "blockNumber": "0x26cdfd5",
      "from": "0x749f88e87EaEb030E478164cFd3681E27d0bcB42",
      "to": "0x43dE2d77BF8027e25dBD179B491e8d64f38398aA",
      "cumulativeGasUsed": "0x8ae40",
      "gasUsed": "0x7823",
      "contractAddress": null,
      "logs": [],
      "status": "0x1",
      "logsBloom": "0x00000000000000000000000000000000000000000000000000000000000000000000000000000000000000000000000000000000000000000000000000000000000000000000000000000000000000000000000000000000000000000000000000000000000000000000000000000000000000000000000000000000000000000000000000000000000000000000000000000000000000000000000000000000000000000000000000000000000000000000000000000000000000000000000000000000000000000000000000000000000000000000000000000000000000000000000000000000000000000000000000000000000000000000000000000000",
      "type": "0x2",
      "effectiveGasPrice": "0x684ee1800"
    },
    {
      "transactionHash": "0xb5c92c5a91e52da93a50bab13edc4f2a7e3870cc6e5be0ee58e712de6c858805",
      "transactionIndex": "0x8",
      "blockHash": "0x7c336384e1f61d3453426e07bc535931efa44dd6474a81f944f0dbee01ea6811",
      "blockNumber": "0x26cdfd5",
      "from": "0x749f88e87EaEb030E478164cFd3681E27d0bcB42",
      "to": "0xcAed8046d2e2b9E395f9b6f2d0206C77E380eBD4",
      "cumulativeGasUsed": "0xac342",
      "gasUsed": "0x21502",
      "contractAddress": null,
      "logs": [
        {
          "address": "0xB31f66AA3C1e785363F0875A1B74E27b85FD66c7",
          "topics": [
            "0xe1fffcc4923d04b559f4d29a8bfc6cda04eb5b0d3c460751c2402c5c5cc9109c",
            "0x00000000000000000000000043de2d77bf8027e25dbd179b491e8d64f38398aa"
          ],
          "data": "0x000000000000000000000000000000000000000000000000063eb89da4ed0000",
          "blockHash": "0x7c336384e1f61d3453426e07bc535931efa44dd6474a81f944f0dbee01ea6811",
          "blockNumber": "0x26cdfd5",
          "transactionHash": "0xb5c92c5a91e52da93a50bab13edc4f2a7e3870cc6e5be0ee58e712de6c858805",
          "transactionIndex": "0x8",
          "logIndex": "0xc",
          "removed": false
        },
        {
          "address": "0x43dE2d77BF8027e25dBD179B491e8d64f38398aA",
          "topics": [
            "0xe315721819a1f353fe56de404206bdd896ab5edc7822f1804a8c4c2c4788174c",
            "0x0d7439042514ae2e124f31c7905e3021f2bae72180b0bee68cb40bdfcaaf5620",
            "0x0000000000000000000000000000000000000000000000000000000000000038"
          ],
          "data": "0x7066007658ef3b12aa7bec09b4865845e9b76ad0afbfad55e2dd855d8a0350190000000000000000000000000000000000000000000000000000000000000000000000000000000000000000000000000000000000000000000000000000018000000000000000000000000000000000000000000000000000000000000067690000000000000000000000000000000000000000000000000000000000000000000000000000000000000000000000000000000000000000063eb89da4ed000000000000000000000000000000000000000000000000000000b1a2bc2ec5000000000000000000000000000000000000000000000000000000016bcc41e900000000000000000000000000000000000000000000000000000000000000000001000000000000000000000000000000000000000000000000000000000000000100000000000000000000000000000000000000000000000000000000000001c0000000000000000000000000caed8046d2e2b9e395f9b6f2d0206c77e380ebd40000000000000000000000000000000000000000000000000000000000000014caed8046d2e2b9e395f9b6f2d0206c77e380ebd400000000000000000000000000000000000000000000000000000000000000000000000000000000000001600000000000000000000000000000000000000000000000000000000000000020000000000000000000000000000000000000000000000000058baa15343f00000000000000000000000000000000000000000000000000000000000000000006000000000000000000000000000000000000000000000000000000000000008000000000000000000000000000000000000000000000000000000000000000c00000000000000000000000000000000000000000000000000000000000000014749f88e87eaeb030e478164cfd3681e27d0bcb420000000000000000000000000000000000000000000000000000000000000000000000000000000000000044cca5afd40000000000000000000000000000000000000000000000000000000000000003000000000000000000000000749f88e87eaeb030e478164cfd3681e27d0bcb4200000000000000000000000000000000000000000000000000000000",
          "blockHash": "0x7c336384e1f61d3453426e07bc535931efa44dd6474a81f944f0dbee01ea6811",
          "blockNumber": "0x26cdfd5",
          "transactionHash": "0xb5c92c5a91e52da93a50bab13edc4f2a7e3870cc6e5be0ee58e712de6c858805",
          "transactionIndex": "0x8",
          "logIndex": "0xd",
          "removed": false
        },
        {
          "address": "0x43dE2d77BF8027e25dBD179B491e8d64f38398aA",
          "topics": [
            "0x6bc83b8dd1a15f3a247f8f99d37e3bb8ae7074ea13ee1f509e045723fafe0b55"
          ],
          "data": "0x7066007658ef3b12aa7bec09b4865845e9b76ad0afbfad55e2dd855d8a035019000000000000000000000000000000000000000000000000000000000000676900000000000000000000000000000000000000000000000fec2fba5daada320e00000000000000000000000000000000000000000004b827a361398535bd9b52",
          "blockHash": "0x7c336384e1f61d3453426e07bc535931efa44dd6474a81f944f0dbee01ea6811",
          "blockNumber": "0x26cdfd5",
          "transactionHash": "0xb5c92c5a91e52da93a50bab13edc4f2a7e3870cc6e5be0ee58e712de6c858805",
          "transactionIndex": "0x8",
          "logIndex": "0xe",
          "removed": false
        }
      ],
      "status": "0x1",
      "logsBloom": "0x00000000000000000000000000000004000000000000000020000800000000000000000008000000004020000004000000000000000000000000002000000000000080000800000000000000000000000000100000000000000000008000000000000000000000020000000000000000000000002000000000000000010000000000000000000000000000000000400000000001000000000000000000000000000000000000000800000000000000000000000000000000000000000000000000000000000000000000000000000000000000000000000000000000000000100000000000000000000000000002000000001000000000400200000002000000",
      "type": "0x2",
      "effectiveGasPrice": "0x684ee1800"
    }
  ],
  "libraries": [],
  "pending": [],
  "returns": {},
  "timestamp": 1705922279,
  "chain": 43114,
  "multi": false,
  "commit": null
}